:1000000074EF00F0FF00FF004782FACF12F0FBCF41
:1000100013F0E9CF14F0EACF15F0E1CF16F0E2CFFC
:1000200017F0D9CF18F0DACF19F0F3CF1AF0F4CFD8
:100030001BF0F6CF1CF0F7CF1DF0F8CF1EF0F5CF78
:100040001FF047C020F048C021F049C022F04AC04C
:1000500023F00E01C2BBCAAB03D07FEC1EF01ED052
:10006000F2BCC5A305D0CDA303D056EC20F016D02A
:10007000F2BCC5A105D0CDA103D0C5EC0DF00ED0CA
:10008000F2BCC5A905D0CDA903D036EC1EF006D030
:10009000F2BCC5AB03D0CDBB0BEC20F023C04AF0C3
:1000A00022C049F021C048F020C047F01FC0F5FF32
:1000B0001EC0F8FF1DC0F7FF1CC0F6FF1BC0F4FFF9
:1000C0001AC0F3FF19C0DAFF18C0D9FF17C0E2FF4A
:1000D00016C0E1FF15C0EAFF14C0E9FF13C0FBFF23
:1000E00012C0FAFF479211000BEF19F0000E000149
:1000F000C16F000EC36F000EC26F0501F9510601FA
:10010000D5150001766F0501FA510601D6150001DB
:10011000776F76517711D8A443D0D5C6F9F5D6C6F6
:10012000FAF50501FB6BFC6BA20E0001656F010E79
:10013000666FF9C567F0FAC568F0000E696F25ECC7
:1001400017F00001C351020D790EF324D96E000E91
:10015000F420DA6EA20EDE6E010EDD6EC32B000EF1
:10016000606F050E616F03EC1EF00001C351020DBC
:10017000790EF324D96E000EF420DA6E000EDE6ED6
:10018000050EDD6EC32BC251020DA90EF324D96EEC
:10019000000EF420DA6E000EDE6E050EDD6EC22B50
:1001A0000501F5510601D7150001766F0501F651DD
:1001B0000601D8150001776F76517711D8A443D086
:1001C000D7C6F5F5D8C6F6F50501F76BF86B000E46
:1001D0000001656F020E666FF5C567F0F6C568F041
:1001E000010E696F25EC17F00001C351020D790E65
:1001F000F324D96E000EF420DA6E000EDE6E020ECD
:10020000DD6EC32B000E606F060E616F03EC1EF0F7
:100210000001C351020D790EF324D96E000EF420B3
:10022000DA6E000EDE6E060EDD6EC32BC251020DBD
:10023000A90EF324D96E000EF420DA6E000EDE6EE5
:10024000060EDD6EC22B0501F1510601D915000124
:10025000766F0501F2510601DA150001776F7651CC
:100260007711D8A443D0D9C6F1F5DAC6F2F5050165
:10027000F36BF46B470E0001656F020E666FF1C5FC
:1002800067F0F2C568F0020E696F25EC17F0000107
:10029000C351020D790EF324D96E000EF420DA6EEC
:1002A000470EDE6E020EDD6EC32B470E606F060E2C
:1002B000616F03EC1EF00001C351020D790EF324AF
:1002C000D96E000EF420DA6E470EDE6E060EDD6E7D
:1002D000C32BC251020DA90EF324D96E000EF420D7
:1002E000DA6E470EDE6E060EDD6EC22B0501ED5195
:1002F0000601DB150001766F0501EE510601DC15E4
:100300000001776F76517711D8A443D0DBC6EDF5A5
:10031000DCC6EEF50501EF6BF06B8E0E0001656F2C
:10032000020E666FEDC567F0EEC568F0030E696FEB
:1003300025EC17F00001C351020D790EF324D96E9C
:10034000000EF420DA6E8E0EDE6E020EDD6EC32B12
:100350008E0E606F060E616F03EC1EF00001C3513C
:10036000020D790EF324D96E000EF420DA6E8E0E93
:10037000DE6E060EDD6EC32BC251020DA90EF324F4
:10038000D96E000EF420DA6E8E0EDE6E060EDD6E75
:10039000C22B0201E2510601DD150001766F020158
:1003A000E3510601DE150001776F76517711D8A46D
:1003B00043D0DDC6E2F2DEC6E3F20201E46BE56B98
:1003C000000E0001656F030E666FE2C267F0E3C2C4
:1003D00068F0040E696F25EC17F00001C351020D9F
:1003E000790EF324D96E000EF420DA6E000EDE6E64
:1003F000030EDD6EC32B000E606F070E616F03EC02
:100400001EF00001C351020D790EF324D96E000EC7
:10041000F420DA6E000EDE6E070EDD6EC32BC251C5
:10042000020DA90EF324D96E000EF420DA6E000E30
:10043000DE6E070EDD6EC22B0501E9510601DF15E8
:100440000001766F0501EA510601E0150001776FA2
:1004500076517711D8A443D0DFC6E9F5E0C6EAF5B6
:100460000501EB6BEC6B470E0001656F030E666FC9
:10047000E9C567F0EAC568F0050E696F25EC17F06D
:100480000001C351020D790EF324D96E000EF42041
:10049000DA6E470EDE6E030EDD6EC32B470E606F05
:1004A000070E616F03EC1EF00001C351020D790EBF
:1004B000F324D96E000EF420DA6E470EDE6E070EBE
:1004C000DD6EC32BC251020DA90EF324D96E000EAE
:1004D000F420DA6E470EDE6E070EDD6EC22B0501CC
:1004E000E5510601E1150001766F0501E6510601AF
:1004F000E2150001776F76517711D8A443D0E1C699
:10050000E5F5E2C6E6F50501E76BE86B8E0E000146
:10051000656F030E666FE5C567F0E6C568F0060E09
:10052000696F25EC17F00001C351020D790EF32419
:10053000D96E000EF420DA6E8E0EDE6E030EDD6EC6
:10054000C32B8E0E606F070E616F03EC1EF000016F
:10055000C351020D790EF324D96E000EF420DA6E29
:100560008E0EDE6E070EDD6EC32BC251020DA90E7C
:10057000F324D96E000EF420DA6E8E0EDE6E070EB6
:10058000DD6EC22B0501E1510601E3150001766F16
:100590000501E2510601E4150001776F76517711EC
:1005A000D8A443D0E3C6E1F5E4C6E2F50501E36B68
:1005B000E46B000E0001656F040E666FE1C567F025
:1005C000E2C568F0070E696F25EC17F00001C35112
:1005D000020D790EF324D96E000EF420DA6E000EAF
:1005E000DE6E040EDD6EC32B000E606F080E616FB1
:1005F00003EC1EF00001C351020D790EF324D96EF5
:10060000000EF420DA6E000EDE6E080EDD6EC32BD7
:10061000C251020DA90EF324D96E000EF420DA6E39
:10062000000EDE6E080EDD6EC22B0501DD510601E7
:10063000E5150001766F0501DE510601E6150001A2
:10064000776F76517711D8A443D0E5C6DDF5E6C6BD
:10065000DEF50501DF6BE06B470E0001656F040EF0
:10066000666FDDC567F0DEC568F0080E696F25ECC2
:1006700017F00001C351020D790EF324D96E000E5C
:10068000F420DA6E470EDE6E040EDD6EC32B470ECD
:10069000606F080E616F03EC1EF00001C351020D84
:1006A000790EF324D96E000EF420DA6E470EDE6E5A
:1006B000080EDD6EC32BC251020DA90EF324D96EB4
:1006C000000EF420DA6E470EDE6E080EDD6EC22BD1
:1006D0000501D9510601E7150001766F0501DA51D0
:1006E0000601E8150001776F76517711D8A443D041
:1006F000E7C6D9F5E8C6DAF50501DB6BDC6B8E0ED3
:100700000001656F040E666FD9C567F0DAC568F041
:10071000090E696F25EC17F00001C351020D790E27
:10072000F324D96E000EF420DA6E8E0EDE6E040E07
:10073000DD6EC32B8E0E606F080E616F03EC1EF032
:100740000001C351020D790EF324D96E000EF4207E
:10075000DA6E8E0EDE6E080EDD6EC32BC251020DF8
:10076000A90EF324D96E000EF420DA6E8E0EDE6E22
:10077000080EDD6EC22B0601F351E9150001766FFC
:100780000601F451EA150001776F76517711D8A46C
:1007900043D0E9C6F3F6EAC6F4F60601F56BF66B4C
:1007A000470E0001656F050E666FF3C667F0F4C66D
:1007B00068F00A0E696F25EC17F00001C351020DB5
:1007C000790EF324D96E000EF420DA6E470EDE6E39
:1007D000050EDD6EC32B000E606F090E616F03EC1A
:1007E0001EF00001C351020D790EF324D96E000EE4
:1007F000F420DA6E000EDE6E090EDD6EC32BC251E0
:10080000020DA90EF324D96E000EF420DA6E000E4C
:10081000DE6E090EDD6EC22B0601EF51EB150001F5
:10082000766F0601F051EC150001776F7651771164
:10083000D8A443D0EBC6EFF6ECC6F0F60601F16B98
:10084000F26B8E0E0001656F050E666FEFC667F0E6
:10085000F0C668F00B0E696F25EC17F00001C3516C
:10086000020D790EF324D96E000EF420DA6E8E0E8E
:10087000DE6E050EDD6EC32B470E606F090E616FD5
:1008800003EC1EF00001C351020D790EF324D96E62
:10089000000EF420DA6E470EDE6E090EDD6EC32BFD
:1008A000C251020DA90EF324D96E000EF420DA6EA7
:1008B000470EDE6E090EDD6EC22B0501D551060115
:1008C000ED150001766F0501D6510601EE15000108
:1008D000776F76517711D8A443D0EDC6D5F5EEC623
:1008E000D6F50501D76BD86B000E0001656F0A0EB7
:1008F000666FD5C567F0D6C568F0D5C569F025EC3B
:1009000017F00001C351020D790EF324D96E000EC9
:10091000F420DA6E000EDE6E0A0EDD6EC32B8E0E34
:10092000606F090E616F03EC1EF00001C351020DF0
:10093000790EF324D96E000EF420DA6E8E0EDE6E80
:10094000090EDD6EC32BC251020DA90EF324D96E20
:10095000000EF420DA6E8E0EDE6E090EDD6EC22BF6
:10096000790E6E6F000E6F6FC3C070F030504FEC99
:100970001EF00001786F7851D8B402D0010E25D056
:1009800074C0D9FF75C0DAFFDF50766F7651010D64
:10099000F3507225D96EF4507321DA6E410EDF6E7A
:1009A000744B752B74C0D9FF75C0DAFFDF50766FBA
:1009B0007651010DF3507225D96EF4507321DA6E21
:1009C000EE0EDF6E744B752B000EC16F72C060F0BF
:1009D00073C061F074C062F075C063F0A90E646FFB
:1009E000000E656FC2C066F069EC13F00001C16FC4
:1009F000C1511200000E02010F6F000E0D6F000EAC
:100A00000E6F000E036F000E026F000E066F000ED9
:100A1000126F000E116F000E076F000E106F000EA8
:100A2000086F130E096F020E0A6F5A0E0B6F020E3B
:100A30000C6F000E136F010E5A6F115100017825D3
:100A4000D96E0201125100017921DA6EDF500201E4
:100A50000F6F114B122B115100017825D96E020135
:100A6000125100017921DA6EDF507B6F7B51020158
:100A7000026F036B114B122B115100017825D96EB7
:100A80000201125100017921DA6EDF5002010D6F6F
:100A9000114B122B115100017825D96E0201125110
:100AA00000017921DA6EDF5002010E6F114B122B1B
:100AB00002C214F203C215F20DC256F202C25BF278
:100AC00003C25CF20EC29DF2200E0F6148D00D51A0
:100AD000D8A403D0400E456E1200000E086F1BD044
:100AE000115100017825D96E0201125100017921BE
:100AF000DA6E02010851010D030EF326000EF422F6
:100B0000130EF324E16E020EF420E26EDFCFE7FF56
:100B1000114B122B082B0D51085DD8A0E1D71151B4
:100B200000017825D96E0201125100017921DA6E97
:100B3000DF500201066F114B122B78C060F079C0B4
:100B400061F011050001626F67EC1EF00201076F92
:100B500006510719D8B423D0200E456E120011514A
:100B600000017825D96E0201125100017921DA6E57
:100B7000DF500201066F114B122B78C060F079C074
:100B800061F011050001626F67EC1EF00201076F52
:100B900006510719D8B403D0200E456E12000F512C
:100BA000D8A41ED0090E0001696F020E6A6F010EF3
:100BB0006B6FEDEC0EF057C2D9FF58C2DAFFDE04BE
:100BC000D8A407D0410E0B01C06F3F2A100E456E0E
:100BD0001200100E0B01C06F3F2A100E456E12005E
:100BE000100E02010F19D8A450D0090E0001696F30
:100BF000020E6A6F020E6B6FEDEC0EF057C2D9FF5A
:100C000058C2DAFFDE04D8B407D09EC2D9FF9FC213
:100C1000DAFFDE04D8A407D0410E0B01C06F3F2AD3
:100C2000100E456E1200000E0201106F1051010DE2
:100C3000C00EF324D96E0B0EF420DA6E100EDF6EA8
:100C4000102B000E046F18D00451010D030EF32673
:100C5000000EF4225A0EF324D96E020EF420DA6E3E
:100C60001051010DC00EF324E16E0B0EF420E26E64
:100C7000DFCFE7FF102B042B0E51045DD8A0E4D783
:100C800010C23FF0100E456E1200200E0F19D8A4AE
:100C900049D00B0E0001696F020E6A6F010E6B6F77
:100CA000EDEC0EF09EC2D9FF9FC2DAFFDE04D8A49D
:100CB00007D0410E0B01C06F3F2A100E456E120087
:100CC000000E0201106F1051010DC00EF324D96EF9
:100CD0000B0EF420DA6E100EDF6E102B000E056F77
:100CE00018D00551010D030EF326000EF4225A0E02
:100CF000F324D96E020EF420DA6E1051010DC00EED
:100D0000F324E16E0B0EF420E26EDFCFE7FF102B31
:100D1000052B0E51055DD8A0E4D710C23FF0100E90
:100D2000456E1200300E0F19D8A40AD0100E0B0118
:100D3000C06FAA0EC16F020E3F6E100E456E1200FC
:100D4000310E02010F19D8A417D000C270F001C2F1
:100D500071F0010E0001726F000E746F5A0E736F06
:100D60008DEC1AF0100E0B01C06FBB0EC16F020E9E
:100D70003F6E100E456E1200320E02010F19D8A4FC
:100D800015D0C10E0001706F0B0E716F010E726FE6
:100D9000000E746F5A0E736FE1EC1BF0100E0B0116
:100DA000C06F020E3F6E100E456E1200200E456E93
:100DB00012000001CE6F000E0001D06F000ECF6F49
:100DC00072D1000ED26F000ED16F58D1010EC9251D
:100DD000606F000ECA21616F52EC20F0EFD0010E5F
:100DE0000001C925C46F000ECA21C56FC1EC18F0FF
:100DF000E5D0010E0001C925726F000ECA21736F84
:100E000062EC16F0DBD0010E0001C925726F000EF6
:100E1000CA21736F53EC19F0D1D0010E0001C9251E
:100E2000626F000ECA21636FECEC1EF0C7D0010E9A
:100E30000001C925626F000ECA21636FC3EC1EF06A
:100E4000BDD0010E0001C925626F000ECA21636F7B
:100E50004FEC1CF0B3D0010E0001C925626F000EEB
:100E6000CA21636FB5EC1DF0A9D0010E0001C925A0
:100E7000626F000ECA21636FAEEC1EF09FD0010EB0
:100E80000001C925626F000ECA21636FE9EC1DF0F5
:100E900095D0010E0001C925626F000ECA21636F53
:100EA00081EC1DF08BD0010E0001C925626F000E90
:100EB000CA21636F2BEC1AF081D0010E0001C92505
:100EC000686F000ECA21696FC1EC19F077D0010E6E
:100ED0000001C925626F000ECA21636FCFEC1DF0BF
:100EE0006DD0010E0001C925626F000ECA21636F2B
:100EF00067EC1DF063D0010E0001C925626F000E82
:100F0000CA21636F9BEC1DF059D0010E0001C92569
:100F1000626F000ECA21636F54EC1FF04FD0010EB8
:100F20000001C925626F000ECA21636F61EC1FF0DA
:100F300045D0010E0001C925626F000ECA21636F02
:100F4000E5EC1FF03BD0010E0001C925606F000EDB
:100F5000CA21616F31EC20F031D0010E0001C925AA
:100F6000606F000ECA21616F29EC20F027D0010EBE
:100F70000001C925606F000ECA21616F25EC20F0C9
:100F80001DD0010E0001C925606F000ECA21616FDE
:100F900035EC20F013D0010E0001C925606F000E62
:100FA000CA21616F2DEC20F009D0010E0001C92586
:100FB000606F000ECA21616F39EC20F0C9C0D9FF03
:100FC000CAC0DAFF100E07D0400E456EC9C0D9FF67
:100FD000CAC0DAFF000EDF6E4ED00001CE51000A0B
:100FE000D8B4F4D6010AD8B4FAD6030AD8B401D7D3
:100FF000010AD8B408D7070AD8B40FD7010AD8B461
:1010000016D7030AD8B41DD7010AD8B424D70F0ABB
:10101000D8B42BD7010AD8B432D7030AD8B439D7F9
:10102000010AD8B440D7070AD8B447D7010AD8B4C0
:101030004ED7030AD8B455D7010AD8B45CD71F0AD3
:10104000D8B463D7010AD8B46AD7030AD8B471D721
:10105000010AD8B478D7070AD8B47FD7010AD8B420
:1010600086D7030AD8B48DD7010AD8B494D70F0A0B
:10107000D8B49BD7A9D70001D14BD22B20EE01F0D9
:10108000C751D926C851DA22DF50CB6FCC6BCB5178
:10109000D15DD251800ACD6FCC51800ACD59D8A0F4
:1010A0009CD7CF4BD02BC7C0D9FFC8C0DAFFDF50C9
:1010B000CB6FCC6BCB51CF5DD051800ACD6FCC5173
:1010C000800ACD59D8B012007CD600016E6F000E98
:1010D0000001716F000E786F68C060F069C061F048
:1010E000030E626F17EC1BF00001716FA00E7A6F98
:1010F0007AAF0CD0010E836E050EE82EFED700F0FD
:10110000030E836E050EE82EFED70BD0010E836E04
:10111000050EE82EFED700F0000E836E050EE82EB9
:10112000FED700F0010E836E010E0001726F030EF8
:10113000726501D016D07A517A257A6F7AAF06D0CF
:10114000030E836E050EE82EFED705D0000E836ECB
:10115000050EE82EFED700F0010E836E0001722B03
:10116000E6D7000E736F44D07351010DF35068251C
:10117000D96EF4506921DA6EDF507A6F7AAF0CD0F5
:10118000010E836E050EE82EFED700F0030E836E6F
:10119000050EE82EFED70BD0010E836E050EE82E4D
:1011A000FED700F0000E836E050EE82EFED700F08D
:1011B000010E836E010E0001746F070E746501D07D
:1011C00016D07A517A257A6F7AAF06D0030E836EE5
:1011D000050EE82EFED705D0000E836E050EE82E14
:1011E000FED700F0010E836E0001742BE6D7732B3F
:1011F0006E51735DD8A0B8D77151D8B406D0030E24
:10120000836E050EE82EFED705D0000E836E050E08
:10121000E82EFED700F0010E836E050EE82EFED7F5
:1012200000F0000E836E050EE82EFED700F0100EC3
:10123000456E6AC0D9FF6BC0DAFF100EDF6E000189
:1012400020EE01F06A51D9266B51DA22000EDF6ED2
:10125000000E756FA8D0000E7A6F000E766F070E25
:10126000766501D088D0010E836E050EE82EFED77C
:1012700000F0030E836E050EE82EFED700F0000E80
:10128000836E050EE82EFED700F000017A517A2514
:101290007A6F000E796F020E776F000E706F280E56
:1012A0006F6F48D08DCF78F07951D8A40ED07805E3
:1012B000D8A402D0010E01D0000E6C6F6D6B6CA132
:1012C00039D0010E796F020E34D07905D8A40ED032
:1012D0007851D8A402D0010E01D0000E6C6F6D6B56
:1012E0006CA128D0020E796F000E23D0020E79195E
:1012F000D8A40ED07805D8A402D0010E01D0000EDB
:101300006C6F6D6B6CA116D0030E796F040E11D04B
:10131000030E7919D8A40ED07851D8A402D0010EAA
:1013200001D0000E6C6F6D6B6CA104D0030E796F51
:10133000010E776F6F07D8A070076F29B3E170298E
:10134000D8A4B0D77751D8B414D07705D8A402D098
:101350007A2B0FD06AC0D9FF6BC0DAFF110EDF6E97
:1013600020EE01F06A51D9266B51DA22000EDF6EB1
:1013700002D0762B74D76AC0D9FF6BC0DAFF110E8A
:10138000DE18D8B414D075516C6F6D6B010E6C27DC
:10139000000E6D236C516A25D96E6D516B21DA6E8A
:1013A0007AC0DFFF752B6751755DD8A054D7100E3A
:1013B000456E030E836E1200000E0101F56F000EE4
:1013C000F16F000EF26F000EF46F000EF76F000E5B
:1013D000F66F000EEF6F000EF06FF6510001D3258F
:1013E000D96E0101F7510001D421DA6EDF500101FD
:1013F000F56FF64BF72BF551D8B40ED0F505D8B4F0
:101400000BD0020EF519D8B407D0AA0EF519D8B42E
:1014100003D0210E456E1200F6510001D325D96E7E
:101420000101F7510001D421DA6EDF500101F16FA3
:10143000F64BF72B020EF519D8A449D0F65100014E
:10144000D325D96E0101F7510001D421DA6EDF50A6
:101450000101F46FF64BF72BF451030DF4BE05D0E8
:10146000F304010EF458D8B003D0F451D8A403D03B
:10147000400E456E1200000EF36F18D00101F651B8
:101480000001D325D96E0101F7510001D421DA6E94
:101490000101F351010D000EF324E16E0C0EF42056
:1014A000E26EDFCFE7FFF64BF72BF32BF451030D82
:1014B000F3510001D66FD76BF350D65DD751800A38
:1014C000D86FF450800AD859D8B010D0D7D70101BE
:1014D000F6510001D325D96E0101F7510001D42145
:1014E000DA6EDF500101F26FF64BF72B0101F65176
:1014F0000001D325D96E0101F7510001D421DA6E24
:10150000DF50D8B411D00101F6510001D325D96EB6
:101510000101F7510001D421DA6EDF50D66FD651A8
:101520000101E96FEA6B05D0000E0101EA6F010EBF
:10153000E96FE9C1EDF1F64BF72BF6510001D32528
:10154000D96E0101F7510001D421DA6EDF50D8B411
:1015500011D00101F6510001D325D96E0101F751D7
:101560000001D421DA6EDF50D66FD6510101EB6F46
:10157000EC6B05D0000E0101EC6F010EEB6FEBC1BF
:10158000EEF1F64BF72BF6510001D325D96E010190
:10159000F7510001D421DA6EDF500101EF6FF64BF5
:1015A000F72BD3C060F0D4C061F0F6050001626F84
:1015B00067EC1EF00101F06FEF51F019D8B44ED076
:1015C000200E456E1200010E3F6EED0E0001C76F3A
:1015D000010EC86FC00EC96F0B0ECA6F0101F15129
:1015E000D9EC06F0100E456E1200010E3F6EC00ED3
:1015F0000001626F0B0E636F0101F251F6EC19F0FE
:10160000100E456E1200010E3F6E000E0001606F5D
:101610000C0E616F0101F451030DF3CF62F0F4CFB2
:1016200063F0C00E0001646F0B0E656F53EC20F089
:10163000100E456E1200010E3F6EF2C1C8F0C00ED2
:101640000001C96F0B0ECA6F0101F15118EC14F0C3
:10165000100E456E1200400E456E12000101F5514C
:10166000000AD8B4B0D7010AD8B4BFD7030AD8B497
:10167000CAD7A80AD8B4DFD7EED7F29E030E00016E
:101680008619D8B402D0210EAAD084C0D9FF85C053
:10169000DAFFDF50876FF00E8717D8A410D0030E43
:1016A0008A6F010E3F6E84C070F085C071F0C00E6D
:1016B000726F0B0E736F8A5130EC1DF02CD184C009
:1016C000D9FF85C0DAFFDF50F00B100AD8A415D07F
:1016D000030E00018A6F020E896F89293F6E89C04F
:1016E0007AF084C07BF085C07CF0C00E7D6F0B0E5D
:1016F0007E6F8A5107EC1CF00ED184C0D9FF85C0E3
:10170000DAFFDF50F00B200AD8A411D0030E00013D
:101710008A6F010E3F6E84C067F085C068F0C00E0E
:10172000696F0B0E6A6F8A513CEC11F0F4D084C0E3
:10173000D9FF85C0DAFFDF50F00B300AD8A415D0EE
:10174000030E00018A6F020E896F89293F6E89C0DE
:101750007AF084C07BF085C07CF0C00E7D6F0B0EEC
:101760007E6F8A5107EC1CF0D6D084C0D9FF85C0AB
:10177000DAFFDF50F00B400AD8A415D0030E0001A9
:101780008A6F020E896F89293F6E89C07AF084C002
:101790007BF085C07CF0C00E7D6F0B0E7E6F8A5192
:1017A00007EC1CF0B8D084C0D9FF85C0DAFFDF5049
:1017B000F00B500AD8A41BD0030E00018A6F010E53
:1017C0003F6E84C067F085C068F08A51B4EC12F0B7
:1017D0000001886F100E8819D8B403D0410E456EF1
:1017E0009AD0100E456E100E0B01C06F94D084C0BD
:1017F000D9FF85C0DAFFDF50F00B600AD8A415D0FE
:10180000030E00018A6F020E896F89293F6E89C01D
:1018100067F084C068F085C069F0C00E6A6F0B0E77
:101820006B6F8A5165EC08F076D084C0D9FF85C013
:10183000DAFFDF50F00B700AD8A417D0020E0001B7
:101840008A6F84C0D9FF85C0DAFF000EDF6E010EFB
:101850003F6E84C07AF085C07BF0C00E7C6F0B0EAB
:101860007D6F8A51FDEC15F056D084C0D9FF85C03C
:10187000DAFFDF50F00B800AD8A41BD0030E000162
:101880008A6F010E896F84C0D9FF85C0DAFF100E00
:10189000DF6E89293F6E89C07AF084C07BF085C0F5
:1018A0007CF0C00E7D6F0B0E7E6F8A5107EC1CF032
:1018B00032D084C0D9FF85C0DAFFDF50F00B900A28
:1018C000D8A417D0030E00018A6F010E3F6E84C0AA
:1018D000D9FF85C0DAFF000EDF6E84C07AF085C0C4
:1018E0007BF0C00E7C6F0B0E7D6F8A51FDEC15F006
:1018F00012D0210E456E030E00018A6F010E3F6E5D
:1019000084C07AF085C07BF0C00E7C6F0B0E7D6FBB
:101910008A51FDEC15F0F28E120000016D6F000E81
:101920000001706F000E6C6F100E776F68C060F072
:1019300069C061F0030E626F17EC1BF00001706F5D
:10194000A00E796F79AF0CD0010E836E050EE82ED4
:10195000FED700F0030E836E050EE82EFED70BD0E7
:10196000010E836E050EE82EFED700F0000E836E8A
:10197000050EE82EFED700F0010E836E010E000169
:10198000716F030E716501D016D079517925796F89
:1019900079AF06D0030E836E050EE82EFED705D074
:1019A000000E836E050EE82EFED700F0010E836E4A
:1019B0000001712BE6D7000E726F44D07251010DF9
:1019C000F3506825D96EF4506921DA6EDF50796FD3
:1019D00079AF0CD0010E836E050EE82EFED700F015
:1019E000030E836E050EE82EFED70BD0010E836E1C
:1019F000050EE82EFED700F0000E836E050EE82ED1
:101A0000FED700F0010E836E010E0001736F070E0A
:101A1000736501D016D079517925796F79AF06D0E9
:101A2000030E836E050EE82EFED705D0000E836EE2
:101A3000050EE82EFED700F0010E836E0001732B19
:101A4000E6D7722B6D51725DD8A0B8D77051D8B45B
:101A500006D0030E836E050EE82EFED705D0000ECD
:101A6000836E050EE82EFED700F0010E836E050E84
:101A7000E82EFED700F0000E836E050EE82EFED78E
:101A800000F0000E0001746F72D0000E796F000E2E
:101A9000756F070E756501D05BD0010E836E050E64
:101AA000E82EFED700F0030E836E050EE82EFED75B
:101AB00000F0000E836E050EE82EFED700F0000148
:101AC00079517925796F000E786F020E766F000ECE
:101AD0006F6F280E6E6F27D08DCF6CF07851D8A421
:101AE00006D08DA820D0010E786F030E1BD078058C
:101AF000D8A406D08DB817D0020E786F000E12D081
:101B0000020E7819D8A406D08DA80DD0030E786FD8
:101B1000040E08D0030E7819D8B48DB804D0030E83
:101B2000786F010E766F6E07D8A06F076E29D4E12B
:101B30006F29D8A4D1D77651D8B408D07605D8A4C7
:101B400002D0792B03D0410E776F02D0752BA1D72D
:101B5000410E7719D8B40FD07451010DF3506A2596
:101B6000D96EF4506B21DA6E79C0DFFF742B6751A8
:101B7000745DD8A08AD7410E7719D8A402D0410E3F
:101B800001D0100E776F775112000E01CD9196AEF5
:101B900001D1969E000E2F6E20EE03F02450D92620
:101BA0002550DA22DECF04F0DDCF05F004C0D9FFE6
:101BB00005C0DAFF010EDF6E000E246E000E256EEA
:101BC00012000201DFB31200DDC224F0DEC225F0F4
:101BD000DDC2D9FFDEC2DAFFDF502E6E20EE01F04B
:101BE000DD51D926DE51DA22DECF26F0DDCF27F017
:101BF000050EDD27000EDE23FB0EDD1908E1030EC6
:101C0000DE19D8A404D0F60EDD6F030EDE6FDF916F
:101C1000DB51DD1904E1DC51DE19D8B4DF83978094
:101C2000020E2F6E12009782020E2F6E120097ACDA
:101C300006D00201E12B040ED6EC1CF01200D89065
:101C40004230056E4130046E0450926E41A003D0C4
:101C50000B0E2F6E1200030E2F6E120097AC06D0E3
:101C60000201E12B040ED6EC1CF01200978241C059
:101C700004F042C005F005C004F0056A060E041623
:101C8000000E0516F00E0410416E0550426E4180A4
:101C9000010E2C6E020E2F6E12002C04D8B41AD036
:101CA00026C0D9FF27C0DAFFDECF41F0DDCF42F0FA
:101CB00020EE03F02650D9262750DA22DECFD5F3C6
:101CC000DDCFD6F320EE02F02650D9262750DA22B7
:101CD000DF502D6E41C092FF41A003D0050E2F6E44
:101CE0001200030E2F6E120097AC07D00201E12BF9
:101CF000979C050ED6EC1CF012002D062D28D8A4BA
:101D00000ED0050E2626000E27222E2E04D0000E01
:101D1000D6EC1CF012009782020E2F6E1200D5C373
:101D2000D9FFD6C3DAFFDF50926E0301D54BD62B15
:101D3000120097AC07D00201E12B040ED6EC1CF088
:101D4000979C12009786080E2F6E1200080E2F6EB9
:101D500097861200D5C3D9FFD6C3DAFF92CFDFFF33
:101D60000301D54BD62B010E2D5ED8B404D0979A23
:101D7000060E2F6E03D0978AB8EC1FF097881200DA
:101D8000000ED6EC1CF012000201E12B060ED6EC80
:101D90001CF012002F50000AD8B413D7010AD8B48F
:101DA00042D7030AD8B479D7010AD8B49DD7070A15
:101DB000D8B4E6D7010AD8B4BCD7030AD8B4C6D77A
:101DC000010AD8B4DDD70F0AD8B4C4D7020AD8B4F0
:101DD0002ED7010AD8B442D7D7D7020E0101A06F7F
:101DE000000EA16F000EA16FA3D0A151020DF35000
:101DF00000016925D96EF4506A21DA6EDECF6CF0ED
:101E0000DDCF6DF06CC0D9FF6DC0DAFFDF50D8A414
:101E100047D00101A151050D000EF3240001606FB0
:101E2000010EF420616F0101A151020DF350000178
:101E30006925D96EF4506A21DA6EDECF6CF0DDCF01
:101E40006DF0030E6C25626F000E6D21636F010152
:101E5000A151020DF35000016925D96EF4506A2199
:101E6000DA6E10EE43F0DE50E126DD50E222E7505C
:101E7000646F0101A151020DF35000016925D96E73
:101E8000F4506A21DA6E10EE01F0DE50E126DD50EA
:101E9000E222E6CF65F0E5CF66F072EC1CF046D0AA
:101EA0000101A151050D000EF3240001606F010E28
:101EB000F420616F0101A151020DF3500001692569
:101EC000D96EF4506A21DA6EDECF6CF0DDCF6DF0A2
:101ED000030E6C25626F000E6D21636F0101A1512D
:101EE000020DF35000016925D96EF4506A21DA6EB3
:101EF00010EE43F0DE50E126DD50E222E750646F41
:101F00000101A151020DF35000016925D96EF45071
:101F10006A21DA6E10EE01F0DE50E126DD50E22299
:101F2000E6CF65F0E5CF66F040EC1BF00101A12B98
:101F300000016B510101A15DD8B013D056D7000E3E
:101F40000001606F010E616FA00E626F010E636F82
:101F50006B51D0EC17F0020E0101A019D8A404D0E7
:101F6000FAD7A005D8A4EBD7A05112003A50D8A4B4
:101F700008D03AC006F03C50B9EC1BF0010E466E9A
:101F80001200020E3C18D8B495D0F60E046E3C0E2A
:101F9000036E02EC20F071D03AC006F03C50B9EC70
:101FA0001BF0A7D045C006F03C50B9EC1BF0A1D007
:101FB000030E8BEC19F09DD07BEC1FF0010E066E2A
:101FC0003C50B9EC1BF095D0010E066E3C50B9ECBC
:101FD0001BF0CFEC1FF08DD0CFEC1FF0DAEC1FF030
:101FE0003F50010DC00EF324D96E0B0EF420DA6EB3
:101FF000010EDF6E3F2A3F50010DC00EF324D96E53
:102000000B0EF420DA6E010EDF6E3F2A3C508BEC93
:1020100019F0CFEC1FF06DD0DAEC1FF0CFEC1FF011
:10202000000E096E14D00950010D400EF324D96E34
:102030000B0EF420DA6E3F50010DC00EF324E16E5A
:102040000B0EF420E26EDFCFE7FF3F2A092A3E5055
:10205000095CD8A0E8D73C508BEC19F0CFEC1FF00E
:1020600048D037C006F03C50B9EC1BF042D0FF0E10
:10207000066E3C50B9EC1BF03CD03C50000AD8B482
:102080008BD7010AD8B48ED7020AD8B491D7070AE1
:10209000D8B492D7010AD8B497D7030AD8B49CD73A
:1020A000010AD8B4B9D70F0AD8B4DBD7010AD8B41B
:1020B00020D0DDD7CFEC1FF03C0E046EB00E036EC7
:1020C00002EC20F03950D8B40BD0010E066E020E8F
:1020D000B9EC1BF0010E466E010E386E110E08D0E1
:1020E000000E386E000E066E020EB9EC1BF0430EA9
:1020F000456E010E466E1200000E0001806F000E4C
:10210000756F000E7E6F310E7F6FBB0E746F000E09
:102110000201476F000E496F5A0E486F060E8A6F14
:10212000320E4A6F7FC04BF27EC04CF2010E4D6FF3
:1021300074C04EF24A0E0001606F020E616F020120
:102140008A050001626F67EC1EF002014F6F010EFD
:102150000001816F000E836F5A0E826F030EC46FF1
:10216000000E0201006F000E026F5A0E016F050E85
:10217000436F220E036F7FC004F27EC005F2010E92
:10218000066F030E0001606F020E616F02014305CE
:102190000001626F67EC1EF00201076F010E010182
:1021A000A26F000EA46F5A0EA36F030EE56F470EC9
:1021B0000001766F020E776F810E786F000E796FD7
:1021C000000E7A6F020E7B6FA20E7C6F010E7D6F88
:1021D000760E6E6F000E6F6F040E706F30504FEC06
:1021E0001EF00001756F7551D8B42DD08051010DCE
:1021F000F3507225606FF4507321616F840E626F2B
:10220000000E636F000E656F030E646F2BEC1CF005
:10221000030E000180278051010DF3507225606F7D
:10222000F4507321616FA50E626F010E636F000E93
:10223000656F030E646F2BEC1CF0030E000180270A
:1022400080513F2612008051010DF3507225D96E46
:10225000F4507321DA6E410EDF6E802B8051010D38
:10226000F3507225D96EF4507321DA6EEE0EDF6EE4
:10227000802B80513F26120000016B6F000E000181
:102280006C6F67C060F068C061F0030E626F17EC9E
:102290001BF000016C6FA00E706F70AF0CD0010EC0
:1022A000836E050EE82EFED700F0030E836E050E3A
:1022B000E82EFED70BD0010E836E050EE82EFED75A
:1022C00000F0000E836E050EE82EFED700F0010E22
:1022D000836E010E00016D6F030E6D6501D016D087
:1022E00070517025706F70AF06D0030E836E050EAF
:1022F000E82EFED705D0000E836E050EE82EFED721
:1023000000F0010E836E00016D2BE6D7000E6E6F9C
:1023100044D06E51010DF3506725D96EF4506821F9
:10232000DA6EDF50706F70AF0CD0010E836E050E49
:10233000E82EFED700F0030E836E050EE82EFED7C2
:102340000BD0010E836E050EE82EFED700F0000EB6
:10235000836E050EE82EFED700F0010E836E010E8F
:1023600000016F6F070E6F6501D016D07051702598
:10237000706F70AF06D0030E836E050EE82EFED789
:1023800005D0000E836E050EE82EFED700F0010E7C
:10239000836E00016F2BE6D76E2B6B516E5DD8A05C
:1023A000B8D76C51D8B406D0030E836E050EE82E54
:1023B000FED705D0000E836E050EE82EFED700F086
:1023C000010E836E050EE82EFED700F0000E836E20
:1023D000050EE82EFED700F069C0D9FF6AC0DAFF0B
:1023E000110EDF6E410E4518D8B402D0100E456EA6
:1023F000030E836E1200000E0201516F000E006F7B
:10240000310E016FBB0E066F000E086F000E076FD6
:10241000000E526F000E546F5A0E536F060E956FDA
:10242000320E556F01C256F200C257F2010E586FBC
:1024300006C259F2550E0001606F020E616F020173
:1024400095050001626F67EC1EF002015A6F010EE4
:102450000A6F000E0C6F5A0E0B6F030E4D6F520E6B
:10246000026F020E036F0A0E046F020E056F0969F8
:10247000030E096101D074D0095138EC1FF0000936
:10248000D8B46ED0020E0001696F020E6A6F020EA0
:102490006B6FEDEC0EF0E806D8A441D002010951B3
:1024A000EBEC1AF06EC007F26FC008F20201515156
:1024B000010DF35000017525D96EF4507621DA6EC6
:1024C000410EDF6E0201512B5151010DF3500001FD
:1024D0007525D96EF4507621DA6E09C2DFFF02014C
:1024E000512B5151010DF35000017525D96EF45057
:1024F0007621DA6E02010851DF6E512B5151010D28
:10250000F35000017525D96EF4507621DA6E07C2BA
:10251000DFFF0201512B9F0E38EC1FF021D002018A
:1025200006510E19D8B41AD05151010DF3500001C3
:102530007525D96EF4507621DA6E010EDF6E020138
:10254000512B5151010DF35000017525D96EF450F6
:102550007621DA6E09C2DFFF0201512B090788D705
:10256000020151513F2612000001696F000E000167
:102570006B6F100E6A6F67C060F068C061F0030E89
:10258000626F17EC1BF000016B6FA00E6F6F6FAFE7
:102590000CD0010E836E050EE82EFED700F0030E60
:1025A000836E050EE82EFED70BD0010E836E050E4E
:1025B000E82EFED700F0000E836E050EE82EFED743
:1025C00000F0010E836E010E00016C6F030E6C654E
:1025D00001D016D06F516F256F6F6FAF06D0030E0D
:1025E000836E050EE82EFED705D0000E836E050E15
:1025F000E82EFED700F0010E836E00016C2BE6D7AB
:10260000000E6D6F44D06D51010DF3506725D96EEA
:10261000F4506821DA6EDF506F6F6FAF0CD0010E8F
:10262000836E050EE82EFED700F0030E836E050EB6
:10263000E82EFED70BD0010E836E050EE82EFED7D6
:1026400000F0000E836E050EE82EFED700F0010E9E
:10265000836E010E00016E6F070E6E6501D016D0FD
:102660006F516F256F6F6FAF06D0030E836E050E2F
:10267000E82EFED705D0000E836E050EE82EFED79D
:1026800000F0010E836E00016E2BE6D76D2B6951B1
:102690006D5DD8A0B8D76B51D8B406D0030E836E49
:1026A000050EE82EFED705D0000E836E050EE82E2F
:1026B000FED700F0010E836E050EE82EFED700F067
:1026C000000E836E050EE82EFED700F000016A5161
:1026D0001200000E00016C6F000E6B6F000E6A6F2F
:1026E00098D0D8906A35D96E6B35DA6E6451D92698
:1026F0006551DA2210EE04F0DE50E126DD50E222D0
:10270000E7506C6F110E6C19D8B41CD0120E6C19F6
:10271000D8B418D0130E6C19D8B414D0140E6C1988
:10272000D8B410D0150E6C19D8B40CD0160E6C1984
:10273000D8B408D0210E6C19D8B404D0210E6C196D
:10274000D8A465D0D8906A35D96E6B35DA6E6451ED
:10275000D9266551DA2210EE03F0DE50E126DD5075
:10276000E22262C0D9FF63C0DAFFDF50676F6751B2
:10277000010DF3506025D96EF4506121DA6EE7CF78
:10278000DFFF624B632BD8906A35D96E6B35DA6EFA
:102790006451D9266551DA2210EE04F0DE50E126AC
:1027A000DD50E22262C0D9FF63C0DAFFDF50676FFD
:1027B0006751010DF3506025D96EF4506121DA6E36
:1027C000E7CFDFFF624B632BD8906A35D96E6B354C
:1027D000DA6E6451D9266551DA2210EE05F0DE502A
:1027E000E126DD50E22262C0D9FF63C0DAFFDF508C
:1027F000676F6751010DF3506025D96EF450612168
:10280000DA6EE7CFDFFF624B632B000E12006A4BDC
:102810006B2B6651676F686B67516A5D6B51800AFD
:10282000696F6851800A6959D8A05BD7010E120000
:102830000001CB6F81D088EC1FF01200010E000167
:10284000C925606F000ECA21616F27EC1FF0C9C057
:10285000D9FFCAC0DAFF100EDF6E1200010E0001B0
:10286000C925726F000ECA21736F7CEC10F0C9C0CD
:10287000D9FFCAC0DAFF100EDF6E1200010E000190
:10288000C925786F000ECA21796F4CEC1DF0C9C0C4
:10289000D9FFCAC0DAFF100EDF6E1200010E000170
:1028A000C925616F000ECA21626FC8515DEC1AF034
:1028B000C9C0D9FFCAC0DAFF100EDF6E12007BEC70
:1028C00017F0C9C0D9FFCAC0DAFF100EDF6E1200C0
:1028D000BDEC14F0C9C0D9FFCAC0DAFF100EDF6E1C
:1028E00012003DEC20F0C9C0D9FFCAC0DAFF100EBB
:1028F000DF6E120040EC20F0C9C0D9FFCAC0DAFF79
:10290000100EDF6E1200010E0001C925756F000E5A
:10291000CA21766FFBEC11F0C9C0D9FFCAC0DAFF3B
:10292000100EDF6E1200400E456EC9C0D9FFCAC03E
:10293000DAFF000EDF6E12000001CB51000AD8B49E
:102940007AD7010AD8B47AD7030AD8B487D7010A4C
:10295000D8B494D7070AD8B4A1D7010AD8B4AFD74E
:10296000030AD8B4B5D7010AD8B4BBD70F0AD8B474
:10297000C1D7010AD8B4C7D7D6D70B0E0501F96F56
:10298000000EFA6F000EFB6F000EFC6F000EF56F6D
:10299000000EF66F000EF76F000EF86F000EF16F6D
:1029A000000EF26F000EF36F000EF46F000EED6F6D
:1029B000000EEE6F000EEF6F000EF06F000E0201C2
:1029C000E26F000EE36F000EE46F000EE56F000E85
:1029D0000501E96F000EEA6F000EEB6F000EEC6F61
:1029E000000EE56F000EE66F000EE76F000EE86F59
:1029F000000EE16F000EE26F000EE36F000EE46F59
:102A0000000EDD6F000EDE6F000EDF6F000EE06F58
:102A1000000ED96F000EDA6F000EDB6F000EDC6F58
:102A2000000E0601F36F000EF46F000EF56F000E3E
:102A3000F66F000EEF6F000EF06F000EF16F000EDC
:102A4000F26F000E0501D56F000ED66F000ED76F26
:102A5000000ED86F1200116EF60E046E3C0E036E5F
:102A600002EC20F03350D8A410D011C03CF03C5000
:102A7000D8A404D07BEC1FF0000E01D0010E316E03
:102A800011C03DF0010E336E12003450D8A407D0AF
:102A900011C032F011503D26010E346E1200FF0EAF
:102AA0000A6EFF0E0B6E32500C6E0D6A0A500C2629
:102AB0000B500D2235500E6E0F6A0C500E5C0F50ED
:102AC000800A106E0D50800A1058D8A018D01150EE
:102AD0003D263D50D8A402D0010E01D0200E3A6E02
:102AE000000E336E000E346E000E356E000E316E29
:102AF000010E396EF9EC1FF0B6EC0FF012003150F8
:102B0000D8A405D011C03BF0010E316E0BD03E5061
:102B1000010D400EF324D96E0B0EF420DA6E11C0B5
:102B2000DFFF3E2A11503D26352A1200000E00011B
:102B3000696F67AF0AD0671F661F651F646D000E5F
:102B4000652366236723010E696F63AF0AD0631F95
:102B5000621F611F606D000E612362236323010EFB
:102B6000691B000E6A6F000E6B6F000E6C6F000E1B
:102B70006D6F6451651166116711D8B42AD0010ECA
:102B8000686F06D0D8906437653766376737682B2B
:102B900067AFF8D7D8906A376B376C376D376451A9
:102BA000605D655161596651625967516359D8A09A
:102BB00009D06451605F6551615B6651625B67512A
:102BC000635B6A81D8906733663365336433682FFB
:102BD000E1D76951D8B408D06D1F6C1F6B1F6A6DA7
:102BE000000E6B236C236D236AC060F06BC061F034
:102BF0006CC062F06DC063F012000001816F7AC09A
:102C000067F07BC068F000018151B4EC12F0000164
:102C1000806F100E8019D8B403D0410E456E12009B
:102C20007AC0D9FF7BC0DAFFDF50836F83510F0B6F
:102C3000836F83511009836F7AC0D9FF7BC0DAFF9D
:102C400083C0DFFF020E676F7AC068F07BC069F057
:102C5000010E7C256A6F000E7D216B6F81518DEC1A
:102C60000CF00001806F100E8019D8B403D0410E13
:102C7000456E1200010E826F18D08251010DF35083
:102C80007A25D96EF4507B21DA6E8251010DF35012
:102C90007C25E16EF4507D21E26EDE50E618D8B45A
:102CA00003D0410E456E1200822B8151825DD8A067
:102CB000E4D77CC0D9FF7DC0DAFF100EDF6E100EA6
:102CC000456E1200000E0201006FE28D000EE2134D
:102CD000A00EE313000EE413000EE513FF0EE2173F
:102CE000AF0EE317000EE417000EE517E285030EA2
:102CF000E213000EE313E413E513F30EE217FF0EE5
:102D0000E317000EE417000EE517AA0E0501E96FA0
:102D1000FA0EEA6F000EEB6F000EEC6F4D0E000125
:102D2000606F020E616F03EC1EF0940E0001656F80
:102D3000020E666FE2C267F0E3C268F0040E696FCC
:102D400025EC17F0060E0001656F020E666FE9C5EF
:102D500067F0EAC568F0050E696F25EC17F0000E04
:102D60000201016F940E026F020E036F4D0E046F8D
:102D7000020E056F020E00016E6F020E6F6F020EE3
:102D8000706F30504FEC1EF00201016F1200000E08
:102D9000876E000E866E000E836E000E846E000E2F
:102DA000856E030E8C6EF00E886ED90E896EDF0E66
:102DB0008A6E8B68F90E0F01216FFE0E196F26695E
:102DC000070E2E6F000E116F000E256F000E2D6F77
:102DD000000E186F000E106F000E206F000E2C6F8B
:102DE000000E0F6F000E176F000E1F6F000E246F86
:102DF000000EF2BE010E0001606FF29E550E0E0134
:102E0000A06FAA0EA06FA091090EF06F0F0EF86FC1
:102E1000100EF96FB591B593B595B587B599B78192
:102E2000B793B795B797B789B891B883B895B8975E
:102E3000B889550EA06FAA0EA06FA081000160A1F5
:102E400002D0F28E1200F29E120065C0D9FF66C059
:102E5000DAFF000EDF6E000120EE01F06551D92689
:102E60006651DA225A0EDE6E000EDD6E20EE43F061
:102E70006551D9266651DA22050EDF6E20EE03F089
:102E80006551D9266651DA22500EDF6E20EE04F02D
:102E90006551D9266651DA226851DF6E20EE05F0C1
:102EA0006551D9266651DA2267C0DFFF20EE06F0B1
:102EB0006551D9266651DA2269C0DFFF030E652508
:102EC000606F000E6621616F20EE43F06551D926D8
:102ED0006651DA22DF506A6F6A05626F67EC1EF096
:102EE00000016B6F20EE07F06551D9266651DA229A
:102EF0006BC0DFFF1200000E0201FC6F000EFB6FC3
:102F0000000EFA6F000EF96F000EF86F000EF76FEB
:102F1000000EF66F000EF56F000EF46F000EF36FEB
:102F2000000EF26F000EF16F000EF06F000EEF6FEB
:102F3000000EEE6F000EED6F000EEC6F000EEB6FEB
:102F4000000EEA6F000EE96F000EE86F000EE76FEB
:102F5000000EE66F000E0301EB6F000EEA6F000E2D
:102F6000E96F000EE86F000EE76F000EE66F000ECF
:102F7000E56F000EE46F000EE36F000EE26F000ECF
:102F8000E16F000EE06F000EDF6F000EDE6F000ECF
:102F9000DD6F000EDC6F000EDB6F000EDA6F1200CB
:102FA0000001656F0201DFB139D062C0D9FF63C093
:102FB000DAFF020EDF6E20EE01F0DB51D926DC5184
:102FC000DA2260C0DEFF61C0DDFFDBC2D9FFDCC2F8
:102FD000DAFF65C0DFFF20EE03F0DB51D926DC51BC
:102FE000DA2262C0DEFF63C0DDFF050EDB27000EC4
:102FF000DC23FB0EDB1908E1030EDC19D8A404D096
:10300000F60EDB6F030EDC6FDF93DB51DD190CE195
:10301000DC51DE19D8A408D0DF8106D062C0D9FF08
:1030200063C0DAFF010EDF6E62C0D9FF63C0DAFF52
:10303000020EDE18D8A412002F50D8A4FDD70E011E
:10304000CD8112006EEC1FF0F28EF28CC4EC1FF0FA
:10305000030E836EBDEC1AF04650D8A440D038045D
:10306000D8A43DD03650D8B41FD039D0400E00017E
:10307000786F0B0E796F3EC07AF0FAEC04F02DD029
:10308000400E0001D36F0B0ED46F3EC0D5F0DCECC8
:1030900009F023D0400E0001846F0B0E856F3EC0F7
:1030A00086F03DEC0BF019D03B50000AD8B415D097
:1030B000010AD8B412D0030AD8B40FD0120AD8B477
:1030C000D5D7300AD8B409D0100AD8B406D0010A2E
:1030D000D8B4D6D7C10AD8B4DDD7000E386E000EEA
:1030E000366EB8D70001615104E1800E605DD8A052
:1030F00002D0000E12000501E18160C062F061C0E3
:1031000063F0090ED890000162376337E82EFAD7D2
:103110006251646F6351656F666B676B6451020146
:10312000E213000165510201E3130001665102013F
:10313000E413000167510201E51360C062F061C051
:1031400063F0090ED890000162376337E82EFAD792
:10315000FF0E6211646F010E6311656F666B676B22
:1031600064510201E217000165510201E3170001F9
:1031700066510201E417000167510201E517010ED3
:103180001200000E0001C66F000E0601D66F000E81
:10319000D56F000ED86F000ED76F000EDA6F000EDD
:1031A000D96F000EDC6F000EDB6F000EDE6F000EBD
:1031B000DD6F000EE06F000EDF6F000EE26F000E9D
:1031C000E16F000EE46F000EE36F000EE66F000E7D
:1031D000E56F000EE86F000EE76F000EEA6F000E5D
:1031E000E96F000EEC6F000EEB6F000EEE6F000E3D
:1031F000ED6FC4C072F0C5C073F0C60E0001746FED
:10320000000E756F76EC00F00009D8B412000001D2
:10321000C6513F2612008C0EF66E400EF76E000E61
:10322000F86E05EEF9F010EE04F00900F5CFEEFFB0
:10323000E550E150FAE1AE0EF66E400EF76E000E6C
:10324000F86E0900F5CF46F00BEE00F0FD0EEE6AC9
:10325000E806FDE106EED5F0220EEE6AE806FDE195
:1032600005EED5F0240EEE6AE806FDE104EED5F099
:103270002A0EEE6AE806FDE103EED5F0260EEE6AB0
:10328000E806FDE102EEDBF0250EEE6AE806FDE160
:1032900000EE24F01F0EEE6AE806FDE1479047922B
:1032A000000122EF18F0000E0201006FFF0EE2177E
:1032B000F70EE317000EE417000EE517E28D060E79
:1032C0000001606F020E616F03EC1EF04D0E0001F5
:1032D000656F020E666FE2C267F0E3C268F0040E2B
:1032E000696F25EC17F0000E0201016F4D0E026FA1
:1032F000020E036F060E046F020E056F020E000130
:103300006E6F020E6F6F020E706F30504FEC1EF03A
:103310000201016F1200076E07C080FB000E086EED
:1033200014D00850010DC00EF324D96E0B0EF420FA
:10333000DA6E4050010D800EF324E16E0B0EF42086
:10334000E26EDFCFE7FF402A082A3F50085CD8A092
:10335000E8D740040B01816F800E016E0B0E026EE8
:1033600040C003F097EC1EF0066E4050010D800E39
:10337000F324D96E0B0EF420DA6E06C0DFFF402A6C
:103380001200000E00016A6F6B0E606F000E616F1D
:1033900003EC1EF0000E0001B36F000EB26FB3BF5E
:1033A00006D0B35122E1800EB25DD8B01200B2C097
:1033B00060F0B3C061F072EC18F00009D8B41200EC
:1033C0000B0E0501D913000EDA13DB13DC13FB0E11
:1033D000D917FF0EDA17000EDB17000EDC17190ED7
:1033E0000001B227000EB323DAD712000001646F88
:1033F00029D0010E00016225606F000E6321616F0C
:1034000055EC20F062C0D9FF63C0DAFF100EDF6E0A
:103410001200010E00016225606F000E6321616FD2
:1034200054EC20F062C0D9FF63C0DAFF100EDF6EEB
:103430001200400E456E62C0D9FF63C0DAFF000E75
:10344000DF6E120000016451000AD8B4D2D7010A1D
:10345000D8B4DFD7EED7000E0001646F650E606F41
:10346000000E616F03EC1EF0000E0001AD6F000E48
:10347000AC6FADBF04D0100EAD5DD8B01200ACC0C3
:1034800060F0ADC061F0D8EC1EF00009D8B41200B5
:103490000B0E0501D913000EDA13DB13DC13FB0E40
:1034A000D917FF0EDA17000EDB17000EDC1700012C
:1034B000330EAC27030EAD23DCD70001636F000E83
:1034C0000001646F635138EC1FF00009D8A40BD0E1
:1034D00000016451010DF3506125D96EF450622151
:1034E000DA6E000E0AD000016451010DF35061251F
:1034F000D96EF4506221DA6E010EDF6E642B6451D6
:10350000010DF3506125D96EF4506221DA6E63C06B
:10351000DFFF642B64513F261200020E0001776F1B
:10352000000E766F000E756F23D070C069F071C009
:103530006AF072C06BF073C06CF074C06DF0770EFF
:103540006E6F000E6F6F91EC1BF0020E0001771989
:10355000D8B4FBD77751D8A402D0000E1200640E65
:1035600075197611D8A402D0000E1200754B762B77
:103570007705D8A4DAD7000E12004650D8B412004E
:10358000848A000E0001686F000E676F0CD0800EF9
:103590006725D96E0B0E6821DA6EDF5095EC1CF0B2
:1035A0000001674B682B4050646F656B6451675D29
:1035B0006851800A666F6551800A6659D8A0E7D7BE
:1035C0000E01C5B9FDD7849AEFEC1FF0000E466ED0
:1035D000A0EC1FF012000001726F000E0001606F7E
:1035E000900E616FD00E626F030E636F7251706F39
:1035F000716BD89070377137D89070377137040E6F
:103600007027000E712370C064F071C065F0000E69
:1036100065BFFF0E666F676F96EC15F060C073F0C4
:1036200061C074F073C06EF074C06FF01200010ED0
:103630000001656F000E666F000E636F18D0635156
:10364000010DF3506025D96EF4506121DA6EDF5020
:10365000666F000E646F070E646501D007D066BF09
:10366000652B66516625666F642BF5D7632B625117
:10367000635DD8A0E4D76551010B656F65511200F9
:1036800065C067F066C068F0D8900001673768379A
:1036900060C0D9FF61C0DAFF67C0DEFF68C0DDFF30
:1036A00060C0D9FF61C0DAFF000EDB8020EE02F0BF
:1036B0006051D9266151DA2264C0DFFF20EE03F0A9
:1036C0006051D9266151DA2262C0DEFF63C0DDFF9E
:1036D00012000201DFB11ED0EC0E0001606F030E7C
:1036E000616F69C062F06AC063F06BC064F06CC067
:1036F00065F06DC066F040EC1BF0EC0E0001606FF1
:10370000030E616F6EC062F06FC063F0010ED0EC0B
:1037100017F012006EC0D9FF6FC0DAFF010EDF6E26
:1037200012000201DFB11ED0F10E0001606F030E26
:10373000616F69C062F06AC063F06BC064F06CC016
:1037400065F06DC066F072EC1CF0F10E0001606F68
:10375000030E616F6EC062F06FC063F0010ED0ECBB
:1037600017F012006EC0D9FF6FC0DAFF010EDF6ED6
:103770001200086EDAEC1FF008C080FB020E0B018D
:10378000816F4050010D800EF324D96E0B0EF42092
:10379000DA6E06C0DFFF402A800E016E0B0E026E4D
:1037A00040C003F097EC1EF0076E4050010D800EF4
:1037B000F324D96E0B0EF420DA6E07C0DFFF402A27
:1037C000120020D070C069F071C06AF072C06BF056
:1037D00073C06CF074C06DF0770E00016E6F000E58
:1037E0006F6F69EC1BF0020E00017719D8B4FBD79C
:1037F0007751D8B41200640E75197611D8B412003E
:10380000754B762B00017705D8B41200DBD7000189
:103810007F6F7AC067F07BC068F07CC069F0010EF2
:1038200000017D256A6F000E7E216B6F7F518DEC4C
:103830000CF00001806F100E8019D8B403D0410E37
:10384000456E12007DC0D9FF7EC0DAFF100EDF6E1C
:10385000100E456E120062C069F063C06AF060C06D
:1038600067F061C068F011D069C0D9FF6AC0DAFFA3
:10387000DF500001666F694B6A2B67C0D9FF68C0D3
:10388000DAFF66C0DFFF674B682B00016407D8A032
:1038900065076429E9E16529D8B41200E5D7000E6F
:1038A0000001646F030E0501D913000EDA13DB1358
:1038B000DC13F30ED917FF0EDA17000EDB17000E1C
:1038C000DC17D985F40ED917FF0EDA17000EDB17B7
:1038D000000EDC17650E0001606F000E616F03ECD7
:1038E0001EF0120065C067F066C068F0D890000155
:1038F0006737683760C0D9FF61C0DAFF67C0DEFF95
:1039000068C0DDFF20EE02F06051D9266151DA2255
:1039100064C0DFFF20EE03F06051D9266151DA2246
:1039200062C0DEFF63C0DDFF12000001606F0301B3
:10393000FE51D8B4FCD70E01C5B903D060C09AFFC0
:1039400013D0C5992B50010D000EF324D96E0B0E28
:10395000F420DA6E60C0DFFF2B2A3F0E2B6402D00A
:10396000000E2B6E0301FE070E01C5891200100E1A
:10397000D56E680ED66EF60ED46E3C0ED36ED35056
:10398000D4CF63F00001646B63C064F0636B6311B8
:10399000436E6451446E0E01CA9BC28B860E0001B9
:1039A000606F400E616F13EC20F01200036E97847D
:1039B00020EE03F02450D9262550DA22DE50DE1006
:1039C000D8B410D020EE03F02450D9262550DA22A6
:1039D000DECF01F0DDCF02F001C0D9FF02C0DAFF77
:1039E00003C0DFFF000E2F6E1200DAEC1FF07BEC3D
:1039F0001FF0110E4518D8B404D0000E0A6E220E26
:103A000003D0000E0A6E420E096E09C045F045C093
:103A100006F0010EB9EC1BF0000E386E010E466E7A
:103A2000010E366E12000E01C59BC599080E9F6EE1
:103A3000900E9D6E240E9E6E820E9B6E060E9C6EE8
:103A4000000E2B6E000E2A6E400E0301FE6F000E5C
:103A5000D96F000ED86F000ED76F0E01C58B120004
:103A60000001746F70C067F071C068F0000174519C
:103A7000B4EC12F00001756F100E7519D8B403D0B4
:103A8000410E456E120072C0D9FF73C0DAFF100EEE
:103A9000DF6E100E456E1200000E0001846F24EEE2
:103AA000F5F010EE7AF0090EDBCFE3FFE806FCE25A
:103AB0007A0E706F000E716F0A0E726F000E746FC7
:103AC000000E736F8DEC1AF00001856F1200000E6E
:103AD0000001646F0E0E0501D913000EDA13DB131B
:103AE000DC13FE0ED917FF0EDA17000EDB17000EDF
:103AF000DC17650E0001606F000E616F03EC1EF0B5
:103B00001200000E0001646F090E0501D913000EAA
:103B1000DA13DB13DC13F90ED917FF0EDA17000ED8
:103B2000DB17000EDC17650E0001606F000E616F81
:103B300003EC1EF01200000E0001646F0F0E050171
:103B4000D913000EDA13DB13DC13FF0ED917FF0EA7
:103B5000DA17000EDB17000EDC17650E0001606F30
:103B6000000E616F03EC1EF01200000E0001646F86
:103B7000050E0501D913000EDA13DB13DC13F50E65
:103B8000D917FF0EDA17000EDB17000EDC17650ED3
:103B90000001606F000E616F03EC1EF01200000E5A
:103BA0000001646F0D0E0501D913000EDA13DB134B
:103BB000DC13FD0ED917FF0EDA17000EDB17000E0F
:103BC000DC17650E0001606F000E616F03EC1EF0E4
:103BD0001200000E0001646F090E0501D913000EDA
:103BE000DA13DB13DC13F90ED917FF0EDA17000E08
:103BF000DB17000EDC17650E0001606F000E616FB1
:103C000003EC1EF0120060C0D9FF61C0DAFF010EA4
:103C1000DF6E000120EE01F06051D9266151DA22F9
:103C20005A0EDE6E000EDD6E20EE43F06051D92696
:103C30006151DA22030EDF6E1200F60E0201DD6F13
:103C4000030EDE6FF60EDB6F030EDC6FDF83DF919A
:103C5000000EE16F000E956E280E966E000E986EA7
:103C60009F0E936E0E01CD91C5811200400E03018F
:103C7000FE6112D02A50010D000EF324D96E0B0EF6
:103C8000F420DA6EDF509A6E2A2A3F0E2A6402D0A0
:103C9000000E2A6EFE2B12000E01C59912000001C3
:103CA000716F00017151D8A409D06EC069F06FC066
:103CB0006AF070C06BF0EDEC0EF012006EC060F0B8
:103CC0006FC061F070C062F048EC20F01200000E8E
:103CD0000001646F000E636F0BD06351010DF35050
:103CE0006025D96EF4506121DA6EDF506427632BB2
:103CF0006251635DD8A0F1D7646D645112000E016A
:103D0000CA9B4450D46E43C0D3FF0301FB51FC1146
:103D1000FD11D8B4120001D812000500FA6EFB5153
:103D2000FD6EFC51FE6EFD51FF6EFA501200000E4A
:103D3000056E000E046E0BD00450010DF3500124EB
:103D4000D96EF4500220DA6EDF500526042A0350A3
:103D5000045CD8A0F1D7056C05501200000E0001DC
:103D6000646F0501D987F80ED917FF0EDA17000E18
:103D7000DB17000EDC17650E0001606F000E616F2F
:103D800003EC1EF01200000E0001646F0501D981E2
:103D9000F10ED917FF0EDA17000EDB17000EDC1735
:103DA000650E0001606F000E616F03EC1EF01200E3
:103DB000100E0001615DD8A002D0000E12000201B9
:103DC000E28DE28F0501E18160C0E9F561C0EAF5AD
:103DD000EB6BEC6B010E1200000E0001646FF00E35
:103DE0000501D917FF0EDA17000EDB17000EDC17DE
:103DF000650E0001606F000E616F03EC1EF0120093
:103E0000000E0001636F0BD06351010DF35060256C
:103E1000D96EF4506121DA6E000EDF6E632B6251B1
:103E2000635DD8B01200F0D7000E046E0BD00450C2
:103E3000010DF3500124D96EF4500220DA6E000E09
:103E4000DF6E042A0350045CD8B01200F0D7000ED5
:103E50000001626F6251010DF3506025D96EF4507C
:103E60006121DA6EAA0EDF6E622B62513F261200CC
:103E70000001606F030E0001606104D09F0E936E1D
:103E8000000E120060C093FF010E1200400E0001F0
:103E9000606F0B0E616F400E626F00EC1FF0000E42
:103EA0003E6E000E3B6E1200000E0001646F0501B5
:103EB000E185650E0001606F000E616F03EC1EF07E
:103EC0001200000E0001646F0501E189650E00011A
:103ED000606F000E616F03EC1EF012004CEC20F0DE
:103EE000C7EC16F094EC1FF01DEC1EF0B7EC1CF0C4
:103EF00013EC1DF01200400E016E0B0E026E400E10
:103F0000036E14EC1FF0000E3E6E000E3B6E1200AE
:103F10008E84150E0001606FC60EE82EFED7602F4E
:103F2000FCD700F08E941200600E0E01D86F000EC8
:103F3000DA6F000EDC6F080EDE6F000EDD6F120010
:103F4000800E0001606F0B0E616F400E626F00EC1F
:103F50001FF0020E406E1200C00E0001606F0B0ECB
:103F6000616F3D0E626F00EC1FF0000E3F6E12009D
:103F7000050E2626000E27222E2E03D0040E2F6EAD
:103F80001200010E2F6E1200100E456E030E836E8E
:103F900046EC1FF0A0EC1FF0ACEC1FF01200C00EBE
:103FA000016E0B0E026E3D0E036E14EC1FF0000E40
:103FB0003F6E1200800E016E0B0E026E400E036EFD
:103FC00014EC1FF0020E406E1200000E0001646F30
:103FD000650E606F000E616F03EC1EF012004AEC7C
:103FE00020F0F60E0001616F3C0E606F1AEC20F0BD
:103FF00012004EEC20F0F60E026E3C0E016E20EC2C
:1040000020F0120003C001F004C002F020EC20F008
:1040100050EC20F012009DA202D09D989D889950EE
:104020002BEC15F0120060C0FBF361C0FCF362C022
:10403000FDF3120000016151D46E60C0D3FF120085
:104040000250D46E01C0D3FF1200000E0001626F57
:104050001200000E0001626F1200000E0001626F7C
:104060001200000E0001626F1200000E0001626F6C
:104070001200000E0001626F1200010E306E12007D
:10408000000E306E1200F5EC1CF012000B00000068
:10409000000E1200D59E1200F29A1200D59E120058
:1040A000D58E120012001200120012001200010040
:020000040020DA
:10000000FF0FFF0FFF0FFF0FFF0FFF0FFF0FFF0F80
:020000040030CA
:0C0000008CFFFFFF9FFFFFFFFFFFFFFFD3
:00000001FF
